:020000040800F2
:10000000800E002089010008130E00084508000832
:100010004908000843020008D91D0008000000003C
:100020000000000000000000000000006114000853
:1000300011040008000000004D130008B916000864
:10004000A3010008A3010008A3010008A301000800
:10005000A3010008A3010008A3010008A3010008F0
:10006000A3010008A3010008A3010008A3010008E0
:10007000A3010008A3010008A3010008A3010008D0
:10008000A3010008A3010008A3010008A3010008C0
:10009000A3010008A3010008A3010008A3010008B0
:1000A000A3010008A3010008A3010008A3010008A0
:1000B0001D170008A3010008A3010008A301000800
:1000C000A3010008A3010008A3010008A301000880
:1000D000A3010008A3010008A3010008A301000870
:1000E000A3010008A3010008A301000800F002F822
:1000F00000F03AF80AA090E8000C82448344AAF188
:100100000107DA4501D100F02FF8AFF2090EBAE885
:100110000F0013F0010F18BFFB1A43F0010318473B
:100120006828000088280000103A24BF78C878C1E9
:10013000FAD8520724BF30C830C144BF04680C60ED
:10014000704700000023002400250026103A28BF35
:1001500078C1FBD8520728BF30C148BF0B60704739
:100160001FB51FBD10B510BD00F031F81146FFF7E7
:10017000F7FF01F033FE00F04FF803B4FFF7F2FF92
:1001800003BC00F057F800000948804709480047C1
:10019000FEE7FEE7FEE7FEE7FEE7FEE7FEE7FEE737
:1001A000FEE7FEE704480549054A064B7047000094
:1001B000BD160008ED00000880080020800E002019
:1001C000800A0020800A00207047704770477546FB
:1001D00000F02CF8AE4605006946534620F00700B3
:1001E000854618B020B5FFF7DDFFBDE820404FF091
:1001F00000064FF000074FF000084FF0000B21F011
:100200000701AC46ACE8C009ACE8C009ACE8C009DD
:10021000ACE8C0098D46704710B50446AFF30080C6
:100220002046BDE81040FFF7A8BF00000048704717
:100230002008002001491820ABBEFEE7260002007E
:10024000704700BFFEE7000008B50121042001F05F
:10025000AFF810208DF803000120ADF80000032056
:100260008DF802006946044800F07FF90121024838
:1002700000F011FA08BD00000008014070B5044606
:10028000012C1BD10121234800F003FA4FF46170C7
:1002900000F0BFF801211F4800F0FDF94FF416707F
:1002A00000F0B7F801211B4800F0F3F94FF461703A
:1002B00000F0AFF80121174800F0EDF9022C0FD142
:1002C0000121144800F0E5F94FF4617000F0A1F845
:1002D0000121104800F0DFF94FF4167000F099F892
:1002E000032C16D1002511E001210A4800F0D1F9B4
:1002F0004FF47A7000F08DF80121064800F0CBF938
:100300004FF47A7000F085F8681CC5B2142DEBDB51
:1003100000BF70BD0008014010B54FF48061124865
:1003200000F0AEF920B94EF660201049088004E0D4
:100330000E480088401E0D4908800C48008890B97E
:10034000002000F0ADFC00240BE00120FFF796FF39
:100350004FF4FA7000F05DF80320FFF78FFF601C88
:10036000C4B2032CF1DB10BD0008014006000020E0
:1003700000F0805111B10349086001E00249486072
:1003800070470000040402400000024021B10268EE
:1003900042F00102026004E002684FF6FE731A4068
:1003A0000260704701460020002201F0805313B123
:1003B000054B1A6801E0054B1A6802EA01030BB10C
:1003C000012000E0002070470004024000000240CD
:1003D00010B50022026847F6F0739A430C6A8B68E6
:1003E00023430C6923434C6923438C692343CC6921
:1003F00023434C6A23438C6A23431A430260CB682D
:1004000043600B6883604B68C36010BD41607047F8
:10041000704700B5034603E04FF47A7000F005F82A
:10042000181EA3F10103F7D100BD00EBC001C90004
:100430004FF0E0225161002191610521116100BF5F
:100440004FF0E021096901F480310029F8D004213E
:100450004FF0E0221161704730B5044604254FF497
:10046000302000F06FF80546042D17D10C480069C4
:1004700040F002000A49086108464461006940F002
:10048000400008614FF4302000F05CF80546044855
:10049000006941F6FD71084001490861284630BDF8
:1004A0000020024004200B49C96801F0010109B194
:1004B00001200EE00749C96801F0040109B10220DA
:1004C00007E00449C96801F0100109B1032000E008
:1004D00004207047002002400348006940F080007B
:1004E00001490861704700000020024070B50446D1
:1004F0000D460426F00200F025F80646042E11D120
:100500000948006940F00100074908612580F002B0
:1005100000F018F806460448006941F6FE710840EC
:1005200001490861304670BD00200240024803497D
:100530004860034848607047230167450020024037
:10054000AB89EFCD00B502460423FFF7ABFF0346AE
:1005500003E0FFF7A7FF0346521E012B01D1002A3B
:10056000F7D102B90523184600BD2DE9F041024636
:1005700000250026002000230024002791F803C056
:100580000CF00F0591F803C00CF0100CBCF1000F3B
:1005900003D091F802C04CEA050591F800C0BCF107
:1005A000000F31D0146800202BE04FF0010C0CFA42
:1005B00000F3B1F800C00CEA03069E4220D183008C
:1005C0004FF00F0C0CFA03F7BC4305FA03FC4CEA9E
:1005D000040491F803C0BCF1280F06D14FF0010CC0
:1005E0000CFA00FCC2F814C00AE091F803C0BCF198
:1005F000480F05D14FF0010C0CFA00FCC2F810C0F6
:10060000401C0828D1D31460B1F800C0BCF1FF0F22
:1006100034DD546800202EE000F1080C4FF0010892
:1006200008FA0CF3B1F800C00CEA03069E4221D18F
:1006300083004FF00F0C0CFA03F7BC4305FA03FCE0
:100640004CEA040491F803C0BCF1280F05D100F175
:10065000080C08FA0CF8C2F8148091F803C0BCF139
:10066000480F07D100F1080C4FF0010808FA0CF808
:10067000C2F81080401C0828CED35460BDE8F08139
:100680000246002093680B400BB1012000E00020DF
:10069000704741617047016170470AB1016100E034
:1006A000416170472DE9F0470024A1460421254807
:1006B000FFF7F1FF1420FFF7B8FE04212148FFF7F0
:1006C000E8FF00BF08211F48FFF7DAFF0028F9D034
:1006D00000214FF0804001F0ECFA00201A49088018
:1006E0000121880701F0D0F800BF08211548FFF765
:1006F000C7FF0128F9D000214FF0804001F0C4F875
:1007000000F028F8824601F043FD074600220F4B17
:1007100001F0E6FB054601F0B1FB0446204601F07E
:1007200049FE074600220A4B01F046FD054601F04E
:10073000A5FB81464FF08041484601F0C9FEBDE867
:10074000F0870000000801400E00002000408F40AC
:100750000000414010B500BF094800884FF47A718D
:1007600000FB01F4C80601F08FF9044400204FF0AB
:10077000804188843220FFF74CFE204610BD0000E7
:100780000E00002000B585B00121042000F010FE0D
:100790000121084600F0ECFD10208DF81300042024
:1007A000ADF8100003208DF8120004212448FFF753
:1007B00070FF04A92248FFF7D8FE04208DF813002B
:1007C0000820ADF8100003208DF8120008211C4805
:1007D000FFF75FFF04A91A48FFF7C7FE4FF08040FC
:1007E00001F05EF840F2E730ADF808004720ADF8C0
:1007F00004000020ADF80A00ADF8060001A94FF092
:10080000804001F059FA01221146900701F050F999
:100810004FF4A06000F000FD1C208DF800000120C6
:100820008DF801008DF802008DF80300684600F095
:10083000BBFC00214FF0804001F026F805B000BD60
:100840000008014000BFFEE700BFFEE710B5054805
:1008500000F09DFB0349087800F022FAFFF75CFDE9
:1008600010BD0000000000202DE9F04100F0FAFD6D
:10087000FFF788FF00F018FC002000F03DFE002785
:1008800000250020264908703DE0052D02D10025F5
:10089000781CC7B2C5EB051101EB410001F0FAFE6F
:1008A000804600F029FE4FF4FA70FFF7B2FDFFF723
:1008B000F9FE804601F0CEFE86B22807000E1849E8
:1008C000487030128870CE70002404E0144800F0A4
:1008D000BDFB601CC4B2032CF8DB681CC5B2012F41
:1008E00011D1002700F06EFB002404E00C4800F05A
:1008F0004EFB601CC4B2642CF8DB0948007800B1E0
:1009000002E000F0D1FBC0E7064800F0F5FDC8208A
:10091000FFF77FFD00F068F900F054FBBDE8F081BF
:10092000000000200000B4422DE9F0411426FFF73A
:1009300029FF2FE0194800F02AFBFFF7B3FE074616
:1009400001F088FEC4B2C4F12800B04201D10120F8
:1009500000E00020004300B12824282C08DD0F48C7
:10096000007800F0030505F1200000F099F908E097
:100970000A48007800F0030505F1C001C8B200F094
:100980008FF9FFF7C9FC0548007800F01C00082823
:1009900000D000E0CEE700BFBDE8F08100000020FD
:1009A0002DE9F041FFF7EEFE5CE0304800F0EFFA91
:1009B0002E48007800F00304FFF774FE074601F0AC
:1009C00049FE85B22A4801F05FF8074600EBD77070
:1009D0004010A7EB4000C6B2FFF79EFC322D35DA7F
:1009E00000BFFFF75FFE074601F034FE85B204F159
:1009F000C001C8B200F054F940F2DC50FFF709FD25
:100A0000012E11D104F18001C8B200F049F94FF470
:100A10007A70FFF7FEFCFFF745FE074601F01AFE6D
:100A200085B2322D12DADCE704F14001C8B200F0E1
:100A300037F94FF47A70FFF7ECFCFFF733FE074607
:100A400001F008FE85B2322D00DACAE704F1200178
:100A5000C8B200F025F90548007800F01C000C2809
:100A600000D000E0A1E700BFBDE8F0810000002059
:100A70000004004030BF704710B511484088001294
:100A80001049088001201049088000200F49088083
:100A900001F064F90CE00E480078012808D100202C
:100AA0000B49087000214FF0804000F0EDFE00E09F
:100AB000F1E70320FFF7E2FB0320FFF7DFFB10BDA8
:100AC000200400200C0000200A000020100000205C
:100AD0000500002010B501F041F900200F49088001
:100AE0000F49488800EBD0714910491C0D4A11800C
:100AF0000CE00D480078012808D100200A49087050
:100B000000214FF0804000F0BFFE00E0F1E703203D
:100B1000FFF7B4FB0320FFF7B1FB10BD100000206E
:100B2000200400200C0000200400002010B5002448
:100B300036E01E4800F02BFA4FF480611C48FFF7A6
:100B40009FFD38BB194800781A490855012C02D17D
:100B50000220FFF793FB601C84B240F20C408442F9
:100B600001DD012000E0002010494978FF2901D172
:100B7000012100E00021084360B10F490D4800F059
:100B8000EBF800F013F9A01E0B49891E488000F015
:100B90007BFD06E00F2C03DB0449087800F080F8A9
:100BA000C7E70220FFF76AFB10BD0000000000202D
:100BB00000080140140000202204002010B500F0BD
:100BC00013F800F031F900F0FDF9FFF73DFB00F0FC
:100BD00029FD4EF66020034908800220FFF74EFBF6
:100BE00010BD00000600002008B50121082000F01B
:100BF000DFFB10208DF803004FF44660ADF80000D5
:100C000003208DF8020069460248FFF7AEFC00F0B1
:100C10000DFB08BD000C014010B50446002C0BDB99
:100C200020210C48FFF737FD40210A48FFF731FD2E
:100C3000A0B200F077FB0BE020210648FFF729FD6A
:100C400040210448FFF727FD614288B200F06AFBAB
:100C500010BD0000000C014010B50446002C0DDB57
:100C60004FF480610D48FFF716FD4FF400610B480B
:100C7000FFF70FFDA0B200F05FFB0DE04FF48061C5
:100C80000648FFF706FD4FF400610448FFF703FD37
:100C9000614288B200F050FB10BD0000000C014022
:100CA00070B5064606F0E00506F00304012C01D1FC
:100CB000282408E0022C01D1462404E0032C01D1B1
:100CC000642400E00024202D06D160B2FFF7C4FFA9
:100CD00060B2FFF7A1FF3EE0C02D08D1604240B2F4
:100CE000FFF7BAFF604240B2FFF796FF33E0402DB6
:100CF00008D160B2FFF7B0FFA4F11E0148B2FFF7C0
:100D00008BFF28E0A02D09D1604240B2FFF7A4FF7D
:100D1000C4F11E0040B2FFF77FFF1CE0602D09D137
:100D2000C4F11E0040B2FFF797FF604240B2FFF7E8
:100D300073FF10E0802D08D1A4F11E0148B2FFF727
:100D40008BFF60B2FFF768FF05E00020FFF784FF2C
:100D50000020FFF761FF70BD30B58BB005460C4633
:100D60000121084600F0F4FA00950020069040208A
:100D700004900194002007908020059000200290AC
:100D80004FF480700390002008904FF480400A9048
:100D90008010099069460448FFF71AFB00210248B9
:100DA000FFF7F4FA0BB030BD0800024010B5002187
:100DB0000A48FFF7EBFA4FF480710848FFF726FB6B
:100DC00001210648FFF7E2FA00BF0220FFF7EAFA26
:100DD0000028FAD00220FFF7CBFA10BD080002402D
:100DE00010B50446FFF7A2FB2046FFF735FBFFF7DF
:100DF00073FB10BD70B505460C46FFF797FBA1B21B
:100E00002846FFF773FBFFF767FB70BD01460888B4
:100E10007047704710B54FF480610248FFF730FC0F
:100E200010BD00000008014000B587B0012104207A
:100E300000F0BEFA0121082000F0BAFA012188036F
:100E400000F096FA10208DF81B004FF44070ADF8BA
:100E5000180003208DF81A0006A93348FFF785FB18
:100E600048208DF81B004FF48060ADF81800032077
:100E70008DF81A0006A92C48FFF777FB10208DF893
:100E80001B000002ADF8180003208DF81A0006A917
:100E90002648FFF76AFB18208DF81B004FF420400E
:100EA000ADF8180003208DF81A0006A91F48FFF7B7
:100EB0005CFB48208DF81B004FF48040ADF8180013
:100EC00003208DF81A0006A91848FFF74EFB4FF4CF
:100ED0008270ADF806000020ADF80400ADF80800FF
:100EE000ADF812001020ADF810000020ADF80A0097
:100EF000ADF80C004FF40070ADF80E000720ADF80F
:100F0000140001A90A4800F08DFA0121084800F0F8
:100F10006FFA012000F00EF9002000F0F3F8012034
:100F200000F0FCF807B000BD00080140000C0140D3
:100F3000003800402DE9F04107460D4616460020D6
:100F400000F0ECF8384600F065F88046002405E033
:100F5000FF2000F05FF82855601CC4B2B442F7DBF4
:100F6000012000F0DBF84046BDE8F08170B5044692
:100F7000002000F0D3F8204600F04CF8FF2000F0ED
:100F800049F80546012000F0C9F8284670BD70B543
:100F9000044604260720FFF7E9FF054629462720D7
:100FA00000F0F0F805F0400050B1324621466120D3
:100FB000FFF7C0FFFF21E22000F0E4F8012070BD40
:100FC0000020FCE710B5002000F09CF8202210491A
:100FD0002A2000F0BBF80121212000F0D3F80121E4
:100FE000222000F0CFF82821252000F0CBF8202186
:100FF000312000F0C7F80F21262000F0C3F80F21A0
:10100000202000F0BFF8012000F07CF810BD0000A7
:101010006629000810B5044600BF02210A4800F006
:10102000F3F90128F9D12146074800F0F9F900BF8A
:101030000121054800F0E8F90128F9D1024800F043
:10104000ECF9C0B210BD00000038004070B5054694
:10105000002000F057F820222946A02000F076F862
:10106000012000F04FF80A20FFF7DFF900BFFFF77B
:10107000D1FE0028FBD10720FFF778FF0446214668
:10108000272000F07FF804F0100028B1FF21E120B4
:1010900000F078F8102070BD04F0200008B1202086
:1010A000F9E7FF20F7E7000010B5002000F02AF86C
:1010B00020221249302000F049F8202210492A202D
:1010C00000F044F80121212000F05CF801212220E9
:1010D00000F058F81A21242000F054F82821252087
:1010E00000F050F80F21262000F04CF80E212020AF
:1010F00000F048F8012000F005F810BD462900086E
:101100006629000810B5044622464FF48071024853
:10111000FFF7C3FA10BD00000008014010B50446F7
:1011200022464FF400710248FFF7B7FA10BD0000E5
:101130000008014010B5044622464FF48051024891
:10114000FFF7ABFA10BD0000000C01402DE9F041A3
:1011500007460C4615460020FFF7E0FF3846FFF72C
:1011600059FF8046002605E014F8010BFFF752FFF7
:10117000701CC6B2AE42F7DB0120FFF7CFFF40463E
:10118000BDE8F08170B505460C460020FFF7C6FFAC
:101190002846FFF73FFF06462046FFF73BFF0120AA
:1011A000FFF7BCFF304670BD70B5002100230F2251
:1011B000C47804B3154C246804F4E064C4F5E06416
:1011C000210AC1F10403CA40447804FA03F1847887
:1011D0001440214309010E4C0678A155047804F00F
:1011E0001F050124AC4005786D11AD0005F1E02527
:1011F000C5F8004109E0047804F01F050124AC4063
:10120000044D0678761145F8264070BD0CED00E0DF
:1012100000E400E080E100E002490143024A11607D
:10122000704700000000FA050CED00E000B589B041
:101230000121022000F09CF80121042000F098F820
:101240000121082000F0B4F818208DF82300822036
:10125000ADF8200003208DF8220008A92E48FFF7E2
:1012600084F92E4800F02DFC2D4800F02AFC0020C7
:10127000ADF81A00ADF816006320ADF81800232071
:10128000ADF8140000208DF81C0005A9234800F0DB
:1012900013FD0020ADF81A00ADF816006320ADF87C
:1012A00018002320ADF8140000208DF81C0005A9BB
:1012B0001B4800F001FD01A800F0EAFC6020ADF839
:1012C00004000020ADF80C000120ADF8060000205D
:1012D000ADF80A0001A9114800F09CFC01A800F03B
:1012E000D7FC6020ADF804000020ADF80C00012010
:1012F000ADF806000020ADF80A0001A9084800F08A
:10130000E7FB0121054800F0BFFA0121044800F085
:10131000BBFA09B000BD0000000C01400004004011
:101320000008004010B504462146024800F0BAFC0F
:1013300010BD00000008004010B5044621460248D8
:1013400000F0B4FC10BD0000000400407047000035
:1013500029B1064A52690243044B5A6104E0034A28
:1013600052698243014B5A617047000000100240ED
:1013700029B1064AD2690243044BDA6104E0034A08
:10138000D2698243014BDA617047000000100240CD
:1013900029B1064A12690243044B1A6104E0034A68
:1013A00012698243014B1A6170470000001002402D
:1013B00029B1064A92690243044B9A6104E0034A48
:1013C00092698243014B9A6170470000001002400D
:1013D00029B1064AD2680243044BDA6004E0034AAA
:1013E000D2688243014BDA6070470000001002406F
:1013F00021B1028842F04002028004E002884FF6E8
:10140000BF731A40028070470246002013890B40C8
:101410000BB1012000E00020704701468889704729
:101420008181704710B50022028802F441520B8876
:101430004C8823438C882343CC8823430C89234343
:101440004C8923438C892343CC8923431A4302804C
:10145000838B4FF2FF74234083830B8A038210BD7A
:101460007047000000B589B001210220FFF780FF1E
:1014700001210820FFF79CFF18208DF82300012090
:10148000ADF8200003208DF8220008A91848FFF7C6
:101490006CF8184800F015FB0020ADF81A00ADF804
:1014A000160044F61F60ADF818004720ADF8140090
:1014B00000208DF81C0005A90E4800F0FDFB01A8D6
:1014C00000F0E6FB6020ADF804000020ADF80C0051
:1014D0000120ADF806000020ADF80A0001A905487A
:1014E00000F048FB0121034800F0CEF909B000BD2F
:1014F000000C0140000400402DE9F04104460B4976
:10150000204600F0E5FF8046094901F0DBF8074678
:10151000084900F07BFF064601F09CF885B2294699
:10152000054800F0C1FBBDE8F08100000000344335
:101530000000FA440000FA430004004010B500F037
:1015400001F810BD0CB500200190009033480068F0
:1015500040F480303149086000BF3048006800F432
:10156000003000900198401C0190009818B9019833
:10157000B0F5A06FF1D12948006800F4003010B137
:101580000120009001E0002000900098012843D144
:101590002348006840F010002149086008460068B0
:1015A00020F0030008600846006840F00200086070
:1015B0001A4840681949486008464068486008462B
:1015C000406840F4806048600846406820F47C1021
:1015D00048600846406840F4E810486008460068E3
:1015E00040F08070086000BF0C48006800F0007098
:1015F0000028F9D00948406820F0030007494860F6
:101600000846406840F00200486000BF0348406858
:1016100000F00C000828F9D10CBD000000100240B9
:101620000020024010B51648FFF7F0FB4AF2A55122
:10163000884214D01248FFF7D3FB4AF2A551104854
:10164000FFF7D8FB012407E00D4901EB440000211E
:10165000FFF7D0FB601C84B2B4F5007FF4DB0024FC
:1016600009E0074901EB4400FFF7D0FB054921F8E9
:101670001400601C84B2B4F5007FF2DB10BD0000E2
:1016800000FC00082004002010B50948FFF7A8FB63
:10169000002409E0074A32F81410054A02EB44001E
:1016A000FFF7A8FB601C84B2B4F5007FF2DB10BD2D
:1016B00000FC0008200400207047000010B513480B
:1016C000006840F001001149086008464068104970
:1016D00008400E494860084600680E4908400B491A
:1016E00008600846006820F48020086008464068CA
:1016F00020F4FE0048604FF41F008860FFF71EFFD3
:101700004FF000600449086010BD00000010024066
:101710000000FFF8FFFFF6FE08ED00E010B5012124
:10172000880700F0B4F901286FD14C48007800F028
:101730001C0018284CD14A480088401C48490880A1
:10174000088800EBD0714910A0EB4101012917D1A5
:1017500044484549098830F81100E02101EA202079
:10176000C04384B204F0E0043E483F49098830F8A1
:101770001100C0F301200444E0B2FFF791FA1AE02F
:1017800038483949098810F8110000F0E000C043DA
:1017900084B204F0E00433483349098810F811009A
:1017A00000F003000444E0B2FFF77AFA2E48008804
:1017B000401E2D4908802C480088012808D10020AF
:1017C000FFF76EFA0120294908700220FEF756FD46
:1017D0002248007800F01C00142835D120480088E9
:1017E000401C1F490880088800EBD0714910A0EB0D
:1017F000410101290AD11B491D480088401C11F8EC
:1018000010402046FFF74CFA0FE026E01549184833
:101810000088401C31F8100004122046FFF740FAFF
:1018200013480088401C124908800E4880780C49F3
:101830000988884208D10020FFF732FA01200D49BB
:1018400008700220FEF71AFD0B480088401C0A4968
:1018500008800121880700F014F810BD0000002066
:1018600010000020200400200C00002004000020B4
:101870000A000020050000200E000020CA4302825A
:101880007047CA430282704721B1028842F00102C8
:10189000028004E002884FF6FE731A40028070470F
:1018A00010B504466848844208D10121C014FFF7EE
:1018B0008FFD0021E014FFF78BFDC4E0B4F1804FF1
:1018C00008D101210846FFF763FD00210120FFF741
:1018D0005FFDB8E05D48844208D101210220FFF796
:1018E00057FD00210220FFF753FDACE05848844229
:1018F00008D101210420FFF74BFD00210420FFF750
:1019000047FDA0E05348844208D101210820FFF799
:101910003FFD00210820FFF73BFD94E04E48844244
:1019200008D101211020FFF733FD00211020FFF71F
:101930002FFD88E04948844208D101212020FFF78B
:1019400027FD00212020FFF723FD7CE0444884424E
:1019500008D101214014FFF73BFD00216014FFF77F
:1019600037FD70E03F48844209D10121C804FFF7E8
:101970002FFD00214FF40020FFF72AFD63E03A48D5
:10198000844209D101210805FFF722FD00214FF40F
:101990008010FFF71DFD56E03448844209D1012133
:1019A0004805FFF715FD00214FF40010FFF710FD6B
:1019B00049E02F48844208D101214020FFF7E8FC8C
:1019C00000214020FFF7E4FC3DE02A48844208D192
:1019D00001218020FFF7DCFC00218020FFF7D8FCEC
:1019E00031E02548844208D101218015FFF7D0FC61
:1019F0000021A015FFF7CCFC25E02048844209D146
:101A000001210804FFF7E4FC00214FF48030FFF7C8
:101A1000DFFC18E01A48844209D101214804FFF78D
:101A2000D7FC00214FF40030FFF7D2FC0BE0154843
:101A3000844208D101218804FFF7CAFC00214FF439
:101A40008020FFF7C5FC10BD002C014000040040C1
:101A500000080040000C004000100040001400404E
:101A600000340140004C014000500140005401404E
:101A700000180040001C00400020004000400140D1
:101A800000440140004801400146888C704730B551
:101A90000246002000230024158A05EA01039589E7
:101AA00005EA010413B10CB1012000E0002030BDB3
:101AB0001AB183890B43838102E083898B4383813D
:101AC000704701894FF6F87211400181704700009C
:101AD00070B5002400220023058C4FF6EF763540C8
:101AE0000584028C8388048B48F6FF752C404FF6E2
:101AF000FF452C400D884FF6FF7606EA05252C435E
:101B00004FF6DF752A400D8906EA05152A434D88F0
:101B100006EA05152A43154DA84202D0144DA842E5
:101B20001DD14FF67F752A404D894FF6FF7606EAA4
:101B300005152A434FF6BF752A408D8806EA05151C
:101B40002A434FF6FF352B404FF2FF752B408D890E
:101B500006EA85052B43CD8906EA85052B4383805C
:101B60000483CD880587028470BD0000002C0140ED
:101B70000034014070B5002400220023058C4FF68C
:101B8000FF6635400584028C8388848B4FF68F7501
:101B90002C404FF6FC752C400D882C434FF6FF551A
:101BA0002A400D894FF6FF7606EA05252A434D881F
:101BB00006EA05252A43154DA84202D0144DA84235
:101BC0001DD14FF2FF752A404D894FF6FF7606EA88
:101BD00005252A434FF6FF352A408D8806EA05255C
:101BE0002A434EF6FF752B404DF6FF752B408D892D
:101BF00006EA05152B43CD8906EA05152B4383809C
:101C00008483CD888587028470BD0000002C01404C
:101C10000034014070B5002200230024058C4EF6EC
:101C2000FF7635400584038C8488828B48F6FF75E7
:101C30002A404FF6FF452A400D884FF6FF7606EA08
:101C400005252A434DF6FF752B400D8906EA05351B
:101C50002B434D8806EA05352B430B4DA84202D095
:101C60000A4DA84208D14BF6FF752C408D894FF6DE
:101C7000FF7606EA85152C4384808283CD88A0F800
:101C80004050038470BD0000002C0140003401402E
:101C90000021018041808180C18001814181818159
:101CA000C18170470187704781877047A0F8401055
:101CB0007047818470470000002202881D4B9842C3
:101CC0000ED01D4B98420BD0B0F1804F08D01B4B6B
:101CD000984205D01A4B984202D01A4B984204D130
:101CE0004FF68F731A404B881A43174B984207D010
:101CF000164B984204D04FF6FF431A40CB881A4344
:101D000002808B8883850B8803850A4B98420BD011
:101D1000094B984208D00E4B984205D00D4B984283
:101D200002D00D4B984201D10B7A038601238382A6
:101D300070470000002C01400034014000040040C6
:101D400000080040000C004000100040001400405B
:101D50000040014000440140004801401FB50121FE
:101D60000846FFF705FB4FF08040FFF7AAFE002072
:101D7000ADF80A00ADF8060040F2CF70ADF80800EB
:101D800041F61F40ADF8040000208DF80C0001A9B9
:101D90004FF08040FFF790FF01218807FFF76EFDAD
:101DA000012211469007FFF783FE4FF4A060FFF772
:101DB00033FA1C208DF8000001208DF8030000206C
:101DC0008DF801008DF802006846FFF7EDF901215A
:101DD0008807FFF759FD1FBD00BFFEE7FEF7EEFEC7
:101DE00048E02548FFF7D3F82348007800F01C00AE
:101DF00010B9FEF72BFD3DE01F48007800F01C00F5
:101E0000042802D1FEF730FD34E01B48007800F0D2
:101E10001C00082802D1FEF787FD2BE01648007849
:101E200000F01C000C2802D1FEF7BAFD22E0124897
:101E3000007800F01C00102802D1FEF71BFE19E00C
:101E40000D48007800F01C00142802D1FEF714FEA3
:101E500010E00948007800F01C00182802D1FEF7B5
:101E600039FE07E00448007800F01C001C2801D16E
:101E7000FEF75CFEB5E700000000002021F0004204
:101E8000A2F16052B2F5801F01F0004328BFD2F1E9
:101E90007F6C0BD95FEA001C43EAC20242EB507030
:101EA00018BF704728BF20F001007047B2F5801FAF
:101EB000BCBF184670474FEA410C1CF5001F02D208
:101EC000084600F0C6BC70B500F020FA000000899A
:101ED000FFF7F6BF4FF00040A0F58000704700000C
:101EE0002DE9C04130B4DFF8A0C23CEA111418BF9C
:101EF0003CEA131400F0EC8081EA03051CEA11149B
:101F000044EAD57418BF1CEA131500F0C780A4EB8F
:101F100005044FF0004545EAC12145EAC32341EAE3
:101F2000505143EA525304F17F74994204F500344E
:101F30004FEAC0204FEAC22208BF904200F09C80C6
:101F40004FEA13650FF24016765D4FEA134506FB24
:101F500005F7C7F1807706FB07F74FEAD737A7FBEE
:101F600003687642C8F58038A7FB06CE38BFA8F1D3
:101F7000010807FB08E64FF0000EA6FB028CE6FB0B
:101F800003CEDCF1000CCEF1004E38BFAEF1010EF5
:101F9000A6FB0C584FF000074FF00005E6FB0E873C
:101FA000A1FB08C6A0FB07CE16EB0E0645F1000507
:101FB000E1FB076515F1E04E7EBFA4F580345FEAD2
:101FC00046066D4116F1800745F100054FEA1727D7
:101FD0004FEA066647EA0567A6F1DE46B6F1805F7E
:101FE0004FEA15251FD9384624F0010C05EBC471C2
:101FF000BCF1FE6F01EB0C1102D8F0BCBDE8008112
:1020000024425CBF01F5801E9EEAC47F02D4F0BC6E
:10201000BDE80081244238D4F0BCA1F1C041BDE844
:10202000004100F0C1B94FEAD22242EA43524FEADE
:10203000D323A7FB02864FEAD02040EA415007FB9A
:1020400003661EEA0E0F4FEAD12105FB026658BF58
:10205000A6EB0056B6EB00564FEA520E4EEAC37E90
:1020600018EB0E0E56EB530EBDD518EB02085E4171
:102070007F1C55F10005B6E74FF480154FF00007BF
:102080004FF000064FF00008ADE7F0BC4FF0000045
:1020900001F1C04101F00041BDE8008111EA0C1FCF
:1020A0000CEA131500D00CE013EA0C1F00F0258099
:1020B0004FF00000F0BC81EA030101F00041BDE8EF
:1020C0000081F0BCBDE8004181EA030100F06CB979
:1020D000F0BCBDE8004170B500F018F9097EFC3E87
:1020E00000F007B881EA03014FF0000001F0004161
:1020F000704781EA030100F057B9F0BCBDE8004128
:102100004FF0000021497047FFFDFBF9F7F5F4F2AD
:10211000F0EEEDEBE9E8E6E4E3E1E0DEDDDBDAD882
:10212000D7D5D4D3D1D0CFCDCCCBCAC8C7C6C5C4E0
:10213000C2C1C0BFBEBDBCBBBAB9B8B7B6B5B4B3F7
:10214000B2B1B0AFAEADACABAAA9A8A8A7A6A5A4E2
:10215000A3A3A2A1A09F9F9E9D9C9C9B9A999998A6
:102160009797969595949393929191908F8F8E8E49
:102170008D8C8C8B8B8A89898888878786858584D6
:1021800084838382828181800000FF070000F87FC2
:10219000B0FA80F310FA03F10AD0C3F11D0303F57E
:1021A00080634FEA41504FEA035202EBD12170475E
:1021B0004FF0000070470000DFF848C170B51CEA1E
:1021C000111E1EBF1CEA13159EEA0C0F95EA0C0F98
:1021D00000F06F8081EA030423EA4C134EEAD47EB8
:1021E00021EA4C1141F4801143F48013AE44A1FB69
:1021F000024CA0FB0365AEF17F7E361955EB0C0552
:10220000A1FB034C4CF10003A0FB021C16EB0C06D7
:10221000654153F10003094218BF46F0010613F46B
:10222000007F0BD14FEA03314FEA0530340341EA16
:10223000155140EA16506FF003020AE04FEAC3213D
:102240004FEAC520F40241EA555140EA56506FF07A
:10225000020202EB2E4201EB025585EACE710AD052
:102260005FEA440C18BF24F0004450F1000041F133
:10227000000120EAD47040F2FE7C624500D270BDBD
:10228000A84214BF4FF080444FF04044002E08BFD6
:102290000024BEF1806FA8BFA1F1C041BDE870402D
:1022A00080F282804FF0000001F1C04101F0004156
:1022B00070479EEA0C0F0CEA131518BF95EA0C0F35
:1022C00006D04FF0000081EA030E0EF0004170BD11
:1022D00000F01CF88900013E00F007B800F009B8D2
:1022E0004FEA430C5FEA5C5C08D081EA030100F02E
:1022F0005BB84FEA410C5FEA5C5CF6D14FF000003E
:10230000014970470000FF070000F87F0EF1020E40
:102310002EF0030E5EF8046B364205D4012A43EB1F
:10232000030515F5001F12D8012841EB010C1CF51F
:10233000001F0CD80ED14FEAD17C15F5001F0CEB15
:102340004C0C0CF1020C08BF4CEBD37C04E04FF0BA
:10235000080C01E04FEAD37C0CEB4C0526FA05F69D
:1023600006F00706B6F1040C06D20EEB860CBDE8AB
:1023700070404CF0010C6047DFE80CF0090B0202E2
:102380004FF000414FF00000A1F5002170BD19464B
:102390001046012851EB010418BFD4F5001484BF86
:1023A000002001F0004170BD0808A0F500114FEABF
:1023B0003101704743004FEAD30C4FEA3C0C4340D5
:1023C0001FBF40070CF1605113F0FE4F70471CF027
:1023D000006F03D100200CF0004170470CF0004367
:1023E00043EA507010B540EACC0000F0ECF900BFB1
:1023F000000000924FEA0001FFF7D6BF4FF0004106
:102400004FF00000A1F500217047000090EA010F95
:1024100048BF81F0004100F12882421A3CBF801A77
:1024200089184FEAD0524FF07F4C1CEA410FA2EBC3
:10243000D15318BF9CEA026F00F03B804FF0004C74
:102440004CEA00204CEA012121FA03FC10EB0C0CB1
:102450001ED202F1FF325FEA1C2040EBC25038BFAF
:1024600070471CF07F0F4FEA400C18BFBCF17F4F44
:1024700038BF7047C3F12003994008BF20F0010026
:10248000BCF17F4F38BF7047A0F1C04000F0E1B908
:102490004FEA3C00000A40EBC25028BF1CF0FF0F7F
:1024A0004FEA400CE6D018BFBCF17F4F38BF7047F1
:1024B000EAE79CEA026F05D010EA5C0F08BF00F063
:1024C0000040704710B500F07EF900BF64FBBE3ECF
:1024D0004FF47F0C1CEAD0121EBF1CEAD11392EA03
:1024E0000C0F93EA0C0F00F0858090EA010F48BFB3
:1024F00042F4807240F4000C41F400002CF07F4163
:1025000020F07F4000B58142A2EB03020FF2081CCD
:10251000ACEB504EC0F100009EF800E04FEA4E0ECA
:1025200000FB0EFC38BF49004FEA2C1C02F5FA02F2
:102530000CFB0EF34FEACE1E4FEA112C4FEAC121DD
:102540000EEB635E42EB22420EFB0CFC4FEA1C5387
:1025500000FB03114FEA112C4FEA01310EFB0CFC7A
:102560004FEADC4C00FB0C11C14228BF09184CEBB0
:1025700003335DF804EB10EB410143EBC250B2F5BD
:102580007C0F38BF704729D512F0F00F1CBF00F147
:10259000C04000F0004070470081828384858687B8
:1025A00088898B8C8D8E8F919293959697999A9C12
:1025B0009D9FA0A2A3A5A7A8AAACAEB0B2B3B5B781
:1025C000B9BCBEC0C2C5C7C9CCCED1D4D7D9DCDF57
:1025D000E2E6E9ECF0F3F7FAFE0000004FEA400C07
:1025E0000CF1807CBCF17E4F28BF7047B0F1C04039
:1025F00000F02FB990EA010F0CEAD11348BF42F462
:102600008072624538BF634507D213F47F0F16D03E
:1026100080EA010000F00040704710B500F0D3F8E8
:10262000097EFC3E00F005B880EA010000F00040A1
:10263000704780EA010000F0004000F00AB912F48F
:102640007F0F04BF0248704780EA010000F001B923
:102650000000C07FC10DD1F19E0206DB4FEA0023CE
:1026600043F0004323FA02F07047004207D54FEAD7
:102670004001B1F1FE4F02D24FF00000704710B59B
:1026800000F0A1F849922480002070476FEA2000F2
:102690007047000010F0004148BF4042B0FA80F39C
:1026A00010FA03F2C3F19D030BD051EAC35101EBC1
:1026B0001220530638BF704700F1010008BF20F018
:1026C000010070474FF47F0C1CEAD0121EBF1CEAB9
:1026D000D11392EA0C0F93EA0C0F00F0478090EAB6
:1026E000010F48BF42F480724FF0004C4CEA0020CA
:1026F0004CEA012102EB0302A0FB0113A2F5000248
:10270000002918BF43F001035B0028BF4FEA3303E1
:1027100042EB22425FEA132C4CEBC2502EBFBCEBC3
:10272000436FB2F57C0F70474FEA036CBCF1004F6A
:1027300008BF20F00100B2F57C0F38BF70470BD501
:1027400082F0FF0212F5803FC8BF704700F1C04021
:10275000D8BF00F00040704700F5000C5FEA4C0C59
:1027600048BF7047B0F1C04000F073B890EA010F65
:102770000CEAD11348BF42F48072624538BF63450A
:1027800004D280EA010000F00040704710B500F06C
:102790001AF800BF8900013E00F007B800F009B840
:1027A0005FEA410C5FEA1C6C08D080EA010000F08F
:1027B00050B85FEA400C5FEA1C6CF6D14FF0004065
:1027C000A0F5800070470EF1020E2EF0030E5EF8A9
:1027D000044B244204D44FEA4102B2F17F4F11D896
:1027E0004FEA4003B3F17F4F0CD80ED14FEAD07CB3
:1027F000B2F17F4F0CEB4C0C0CF1020C08BF4CEB10
:10280000D17C04E04FF0080C01E04FEAD17C0CEBE6
:102810004C0324FA03F404F00704B4F1040C06D2C8
:102820000EEB840CBDE810404CF0010C6047DFE873
:102830000CF0070802024FF00040A0F5800010BD28
:102840000846420018BFD2F1807288BF00F00040F5
:1028500010BDFF2141EAD050C005704790EA010F3A
:1028600048BF81F000413FF5D8AD421A04D882F04C
:102870000042A0EB020011444FEAD0524FF07F4CCF
:102880001CEA410FA2EBD15318BF9CEA026F4AD059
:102890004FF0004C4CEA00204CEA012121FA03FCE5
:1028A000B0EB0C0C0FD412F0FE0F36D05FEA4C00E8
:1028B0001DD5001240EBC25038BF70471CF03F0FCF
:1028C00018BF70470BE0A2F101025FEA1C2040EB49
:1028D000C25038BF70471CF07F0F18BF7047C3F15C
:1028E0002003994014BF401E20F00100704780086B
:1028F0004FEA122308BF7047B0FA80FCA2EB0C022B
:10290000CCF1280C60FA0CF093EA122F04BF00EB14
:10291000C25070474FEAC3707047130A5FEADC1079
:1029200008BF7047F6E79CEA026F04D010EA5C0F1C
:1029300008BF0020704710B5FFF745FF40DFF63EA7
:1029400081F0004070473443101001000000000087
:102950000000000000000000000000000000000077
:1029600000000000000034431010010000000000CF
:102970000000000000000000000000000000000057
:102980000000000000000000A8290008000000204E
:102990001400000028010008BC29000814000020D1
:1029A0006C0E000044010008000000000000000060
:0C29B0000000000000000000000000001B
:04000005080000ED02
:00000001FF
