:020000040800F2
:10000000780800208901000885050008830300089E
:100010008703000843020008390E000800000000B2
:10002000000000000000000000000000250A000899
:10003000470200080000000071090008410B000899
:10004000A3010008A3010008A3010008A301000800
:10005000A3010008A3010008A3010008A3010008F0
:10006000A3010008A3010008A3010008A3010008E0
:10007000A3010008A3010008A3010008A3010008D0
:10008000A3010008A3010008A3010008A3010008C0
:10009000A3010008A3010008A3010008A3010008B0
:1000A000A3010008A3010008A3010008A3010008A0
:1000B000A50B0008A3010008A3010008A301000884
:1000C000A3010008A3010008A3010008A301000880
:1000D000A3010008A3010008A3010008A301000870
:1000E000A3010008A3010008A301000800F002F822
:1000F00000F03AF80AA090E8000C82448344AAF188
:100100000107DA4501D100F02FF8AFF2090EBAE885
:100110000F0013F0010F18BFFB1A43F0010318473B
:10012000400E0000600E0000103A24BF78C878C16D
:10013000FAD8520724BF30C830C144BF04680C60ED
:10014000704700000023002400250026103A28BF35
:1001500078C1FBD8520728BF30C148BF0B60704739
:100160001FB51FBD10B510BD00F031F81146FFF7E7
:10017000F7FF00F0C9FE00F04FF803B4FFF7F2FFFD
:1001800003BC00F057F800000948804709480047C1
:10019000FEE7FEE7FEE7FEE7FEE7FEE7FEE7FEE737
:1001A000FEE7FEE704480549054A064B7047000094
:1001B000450B0008ED0000087802002078080020B8
:1001C0007804002078040020704770477047754617
:1001D00000F02CF8AE4605006946534620F00700B3
:1001E000854618B020B5FFF7DDFFBDE820404FF091
:1001F00000064FF000074FF000084FF0000B21F011
:100200000701AC46ACE8C009ACE8C009ACE8C009DD
:10021000ACE8C0098D46704710B50446AFF30080C6
:100220002046BDE81040FFF7A8BF00000048704717
:100230001402002001491820ABBEFEE72600020090
:10024000704700BFFEE770472DE9F04102460025E8
:100250000026002000230024002791F803C00CF0A2
:100260000F0591F803C00CF0100CBCF1000F03D087
:1002700091F802C04CEA050591F800C0BCF1000FEE
:1002800031D0146800202BE04FF0010C0CFA00F381
:10029000B1F800C00CEA03069E4220D183004FF063
:1002A0000F0C0CFA03F7BC4305FA03FC4CEA0404F8
:1002B00091F803C0BCF1280F06D14FF0010C0CFAE5
:1002C00000FCC2F814C00AE091F803C0BCF1480F6A
:1002D00005D14FF0010C0CFA00FCC2F810C0401C14
:1002E0000828D1D31460B1F800C0BCF1FF0F34DD91
:1002F000546800202EE000F1080C4FF0010808FAC5
:100300000CF3B1F800C00CEA03069E4221D1830031
:100310004FF00F0C0CFA03F7BC4305FA03FC4CEA50
:10032000040491F803C0BCF1280F05D100F1080CBA
:1003300008FA0CF8C2F8148091F803C0BCF1480F19
:1003400007D100F1080C4FF0010808FA0CF8C2F8C8
:100350001080401C0828CED35460BDE8F0810246CE
:10036000002093680B400BB1012000E00020704793
:1003700041617047016170470AB1016100E041616C
:10038000704700BFFEE700BFFEE7000010B500F0B9
:1003900041F800F053FD00F0F7F800F0C3F9002039
:1003A000034908700349087032200349088010BDD2
:1003B000080000200A0000201000002010B511489D
:1003C00000F095F91048007818B90E49087800F047
:1003D0007DF84FF480610D48FFF7C1FF18B9322056
:1003E0000B49088004E00A480088401E084908803C
:1003F0000748008828B9012003490870002000F050
:1004000065F810BD0400002008000020000801402D
:100410001000002008B50121082000F0BBFA1020D0
:100420008DF803004FF44660ADF8000003208DF80E
:10043000020069460248FFF707FF00F009FA08BD0D
:10044000000C014010B50446002C0BDB20210C48A9
:10045000FFF790FF40210A48FFF78AFFA0B200F0A3
:1004600073FA0BE020210648FFF782FF4021044881
:10047000FFF780FF614288B200F066FA10BD00000D
:10048000000C014010B50446002C0DDB4FF48061D8
:100490000D48FFF76FFF4FF400610B48FFF768FF4F
:1004A000A0B200F05BFA0DE04FF480610648FFF760
:1004B0005FFF4FF400610448FFF75CFF614288B2C0
:1004C00000F04CFA10BD0000000C014070B506466B
:1004D00006F0E00506F00304012C01D1282408E011
:1004E000022C01D1462404E0032C01D1642400E055
:1004F0000024202D06D160B2FFF7C4FF60B2FFF7E1
:10050000A1FF3EE0C02D08D1604240B2FFF7BAFF24
:10051000604240B2FFF796FF33E0402D08D160B251
:10052000FFF7B0FFA4F11E0148B2FFF78BFF28E0F0
:10053000A02D09D1604240B2FFF7A4FFC4F11E0014
:1005400040B2FFF77FFF1CE0602D09D1C4F11E000F
:1005500040B2FFF797FF604240B2FFF773FF10E031
:10056000802D08D1A4F11E0148B2FFF78BFF60B2C5
:10057000FFF768FF05E00020FFF784FF0020FFF78A
:1005800061FF70BD7047000000B587B001210420F5
:1005900000F000FA0121082000F0FCF90121880395
:1005A00000F0E8F910208DF81B004FF44070ADF812
:1005B000180003208DF81A0006A93348FFF744FEFF
:1005C00048208DF81B004FF48060ADF81800032020
:1005D0008DF81A0006A92C48FFF736FE10208DF87A
:1005E0001B000002ADF8180003208DF81A0006A9C0
:1005F0002648FFF729FE18208DF81B004FF42040F5
:10060000ADF8180003208DF81A0006A91F48FFF75F
:100610001BFE48208DF81B004FF48040ADF81800F9
:1006200003208DF81A0006A91848FFF70DFE4FF4B5
:100630008270ADF806000020ADF80400ADF80800A7
:10064000ADF812001020ADF810000020ADF80A003F
:10065000ADF80C004FF40070ADF80E000720ADF8B7
:10066000140001A90A4800F0BFF90121084800F070
:10067000A1F9012000F0B2F8002000F097F8012065
:1006800000F0A0F807B000BD00080140000C0140D8
:10069000003800402DE9F04107460D46164600207F
:1006A00000F090F8384600F065F88046002405E038
:1006B000FF2000F05FF82855601CC4B2B442F7DB9D
:1006C000012000F07FF84046BDE8F08170B5044697
:1006D000002000F077F8204600F04CF8FF2000F0F2
:1006E00049F80546012000F06DF8284670BD70B548
:1006F00004460720FFF7EAFF05462946272000F0B9
:1007000095F805F0400050B1202221466120FFF706
:10071000C1FFFF21E22000F089F8012070BD002018
:10072000FCE7000010B5002000F040F8202210493E
:100730002A2000F05FF80121212000F077F8012144
:10074000222000F073F82821252000F06FF82021E6
:10075000312000F06BF80F21262000F067F80F2100
:10076000202000F063F8012000F020F810BD000008
:10077000400F000810B5044600BF02210A4800F0EF
:1007800025F90128F9D12146074800F02BF900BFCF
:100790000121054800F01AF90128F9D1024800F0BA
:1007A0001EF9C0B210BD00000038004010B504466C
:1007B00022464FF480710248FFF7DEFD10BD0000B5
:1007C0000008014010B5044622464FF4007102486B
:1007D000FFF7D2FD10BD00000008014010B504462F
:1007E00022464FF480510248FFF7C6FD10BD0000BD
:1007F000000C01402DE9F04107460C46154600204B
:10080000FFF7E0FF3846FFF7B5FF8046002605E01A
:1008100014F8010BFFF7AEFF701CC6B2AE42F7DB57
:100820000120FFF7CFFF4046BDE8F08170B50546D7
:100830000C460020FFF7C6FF2846FFF79BFF064641
:100840002046FFF797FF0120FFF7BCFF304670BD41
:1008500000B589B00121022000F08CF801210420AC
:1008600000F088F80121082000F094F818208DF895
:1008700023008220ADF8200003208DF8220008A973
:100880002E48FFF7E1FC2E4800F0DEF92D4800F07D
:10089000DBF90020ADF81A00ADF816006320ADF8C2
:1008A00018002320ADF8140000208DF81C0005A9C5
:1008B000234800F06FFA0020ADF81A00ADF81600DA
:1008C0006320ADF818002320ADF8140000208DF847
:1008D0001C0005A91B4800F05DFA01A800F04AFAC7
:1008E0006020ADF804000020ADF80C000120ADF848
:1008F00006000020ADF80A0001A9114800F0FCF93B
:1009000001A800F037FA6020ADF804000020ADF82F
:100910000C000120ADF806000020ADF80A0001A986
:10092000084800F097F90121054800F070F901210D
:10093000044800F06CF909B000BD0000000C014053
:10094000000400400008004010B50446214602485B
:1009500000F01AFA10BD00000008004010B504466F
:100960002146024800F012FA10BD000000040040C9
:100970007047000029B1064AD2690243044BDA618C
:1009800004E0034AD2698243014BDA6170470000F8
:100990000010024029B1064A92690243044B9A6151
:1009A00004E0034A92698243014B9A617047000058
:1009B0000010024021B1028842F04002028004E0AF
:1009C00002884FF6BF731A4002807047024600202B
:1009D00013890B400BB1012000E000207047014655
:1009E000888970478181704710B50022028802F41F
:1009F00041520B884C8823438C882343CC88234363
:100A00000C8923434C8923438C892343CC8923437A
:100A10001A430280838B4FF2FF74234083830B8A37
:100A2000038210BD704710B500F002F810BD000041
:100A30000CB50020019000903348006840F48030ED
:100A40003149086000BF3048006800F40030009071
:100A50000198401C0190009818B90198B0F5A06F5A
:100A6000F1D12948006800F4003010B10120009055
:100A700001E0002000900098012843D1234800683D
:100A800040F01000214908600846006820F003008B
:100A900008600846006840F0020008601A48406894
:100AA000194948600846406848600846406840F474
:100AB000806048600846406820F47C104860084622
:100AC000406840F4E81048600846006840F08070D4
:100AD000086000BF0C48006800F000700028F9D0E2
:100AE0000948406820F0030007494860084640680C
:100AF00040F00200486000BF0348406800F00C006E
:100B00000828F9D10CBD000000100240002002406E
:100B100000F01C01084A11701146097819B900212A
:100B2000064A117007E0044A1178CA1701EB927265
:100B30009210024B1A7070470E0000200A0000202D
:100B40007047000010B51348006840F001001149DB
:100B5000086008464068104908400E494860084649
:100B600000680E4908400B4908600846006820F4F8
:100B7000802008600846406820F4FE0048604FF47A
:100B80001F008860FFF74FFF4FF0006004490860C6
:100B900010BD0000001002400000FFF8FFFFF6FE4D
:100BA00008ED00E010B50121880700F03CF80128AD
:100BB00020D111490878FFF789FC0F4840780F4988
:100BC0000978884203D00C490878FFF7A1FF0A484A
:100BD00040780A490870084840780949094A12785B
:100BE000885408480078401C06490870012188078D
:100BF00000F00AF810BD0000040000200E000020E4
:100C0000140000200F000020CA430282704721B167
:100C1000028842F00102028004E002884FF6FE736F
:100C20001A400280704730B502460020002300249D
:100C3000158A05EA0103958905EA010413B10CB18F
:100C4000012000E0002030BD01894FF6F87211400C
:100C50000181704770B5002400220023058C4FF6F7
:100C6000EF7635400584028C8388048B48F6FF7547
:100C70002C404FF6FF452C400D884FF6FF7606EAD4
:100C800005252C434FF6DF752A400D8906EA051528
:100C90002A434D8806EA05152A43154DA84202D07D
:100CA000144DA8421DD14FF67F752A404D894FF64D
:100CB000FF7606EA05152A434FF6BF752A408D8850
:100CC00006EA05152A434FF6FF352B404FF2FF7514
:100CD0002B408D8906EA85052B43CD8906EA8505DB
:100CE0002B4383800483CD880587028470BD000078
:100CF000002C01400034014070B500220023002484
:100D0000058C4EF6FF7635400584038C8488828BF3
:100D100048F6FF752A404FF6FF452A400D884FF6EA
:100D2000FF7606EA05252A434DF6FF752B400D890F
:100D300006EA05352B434D8806EA05352B430B4D56
:100D4000A84202D00A4DA84208D14BF6FF752C40AC
:100D50008D894FF6FF7606EA85152C4384808283C1
:100D6000CD88A0F84050038470BD0000002C0140E5
:100D7000003401400021018041808180C1800181D7
:100D800041818181C181704701877047A0F840107F
:100D900070470000002202881D4B98420ED01D4B68
:100DA00098420BD0B0F1804F08D01B4B984205D031
:100DB0001A4B984202D01A4B984204D14FF68F73C7
:100DC0001A404B881A43174B984207D0164B98424B
:100DD00004D04FF6FF431A40CB881A4302808B8819
:100DE00083850B8803850A4B98420BD0094B9842A8
:100DF00008D00E4B984205D00D4B984202D00D4BB7
:100E0000984201D10B7A0386012383827047000048
:100E1000002C014000340140000400400008004064
:100E2000000C004000100040001400400040014051
:100E3000004401400048014000BFFEE700B587B014
:100E400001210420FFF7A6FD01210803FFF7A2FD01
:100E500010208DF81B00ADF8180003208DF81A0043
:100E600006A92248FFF7F0F918208DF81B00A020F2
:100E7000ADF8180003208DF81A0006A91B48FFF7EB
:100E8000E3F948208DF81B004020ADF8180003203E
:100E90008DF81A0006A91548FFF7D6F94FF48270AD
:100EA000ADF806000020ADF80400ADF80800ADF87C
:100EB00012003020ADF810000020ADF80A00ADF8A7
:100EC0000C004FF40070ADF80E000720ADF81400D0
:100ED00001A90748FFF788FD01210548FFF76AFDD2
:100EE000012000F007F807B000BD00000008014035
:100EF0000030014010B50446224610210148FFF79A
:100F00003BFA10BD00080140FFF740FA05E0034935
:100F10000878FFF7FDFDFFF751FAF8E7040000201D
:100F20003443101001000000000000000000000029
:100F300000000000000000000000000000000000B1
:100F40003443101001000000000000000000000009
:100F50000000000000000000000000000000000091
:100F6000800F000800000020140000002801000885
:100F7000940F0008140000206408000044010008D9
:100F80000000000000000000000000000000000061
:040F9000000000005D
:04000005080000ED02
:00000001FF
