:020000040800F2
:10000000880C002089010008170A00082106000852
:1000100025060008430200087D14000800000000C7
:10002000000000000000000000000000590F000860
:10003000B903000800000000850E0008D910000870
:10004000A3010008A3010008A3010008A301000800
:10005000A3010008A3010008A3010008A3010008F0
:10006000A3010008A3010008A3010008A3010008E0
:10007000A3010008A3010008A3010008A3010008D0
:10008000A3010008A3010008A3010008A3010008C0
:10009000A3010008A3010008A3010008A3010008B0
:1000A000A3010008A3010008A3010008A3010008A0
:1000B0003D110008A3010008A3010008A3010008E6
:1000C000A3010008A3010008A3010008A301000880
:1000D000A3010008A3010008A3010008A301000870
:1000E000A3010008A3010008A301000800F002F822
:1000F00000F03AF80AA090E8000C82448344AAF188
:100100000107DA4501D100F02FF8AFF2090EBAE885
:100110000F0013F0010F18BFFB1A43F0010318473B
:10012000C4140000E4140000103A24BF78C878C159
:10013000FAD8520724BF30C830C144BF04680C60ED
:10014000704700000023002400250026103A28BF35
:1001500078C1FBD8520728BF30C148BF0B60704739
:100160001FB51FBD10B510BD00F031F81146FFF7E7
:10017000F7FF01F0EBF900F04FF803B4FFF7F2FFDF
:1001800003BC00F057F800000948804709480047C1
:10019000FEE7FEE7FEE7FEE7FEE7FEE7FEE7FEE737
:1001A000FEE7FEE704480549054A064B7047000094
:1001B000DD100008ED00000888060020880C0020F3
:1001C00088080020880800207047704770477546EF
:1001D00000F02CF8AE4605006946534620F00700B3
:1001E000854618B020B5FFF7DDFFBDE820404FF091
:1001F00000064FF000074FF000084FF0000B21F011
:100200000701AC46ACE8C009ACE8C009ACE8C009DD
:10021000ACE8C0098D46704710B50446AFF30080C6
:100220002046BDE81040FFF7A8BF00000048704717
:100230002406002001491820ABBEFEE7260002007C
:10024000704700BFFEE7000008B50121042000F060
:100250003BFE10208DF803000120ADF800000320C4
:100260008DF802006946044800F03DF9012102487A
:1002700000F0CFF908BD00000008014070B5044649
:10028000012C1BD10121234800F0C1F94FF461700A
:1002900000F093F801211F4800F0BBF94FF41670ED
:1002A00000F08BF801211B4800F0B1F94FF46170A8
:1002B00000F083F80121174800F0ABF9022C0FD1B0
:1002C0000121144800F0A3F94FF4617000F075F8B3
:1002D0000121104800F09DF94FF4167000F06DF800
:1002E000032C16D1002511E001210A4800F08FF9F6
:1002F0004FF47A7000F061F80121064800F089F9A6
:100300004FF47A7000F059F8681CC5B2142DEBDB7D
:1003100000BF70BD0008014000F0805111B10349D9
:10032000086001E002494860704700000404024090
:100330000000024021B1026842F00102026004E0C4
:1003400002684FF6FE731A400260704701460020B3
:10035000002201F0805313B1054B1A6801E0054BF0
:100360001A6802EA01030BB1012000E00020704787
:10037000000402400000024010B50022026847F667
:10038000F0739A430C6A8B6823430C6923434C69CE
:1003900023438C692343CC6923434C6A23438C6AEF
:1003A00023431A430260CB6843600B6883604B6849
:1003B000C36010BD416070477047002106E0002215
:1003C00000E0521CB2F57A7FFBD3491C8142F6D380
:1003D0007047000030B5044604254FF4302000F08B
:1003E0006FF80546042D17D10C48006940F0020053
:1003F0000A49086108464461006940F0400008610C
:100400004FF4302000F05CF805460448006941F6DE
:10041000FD71084001490861284630BD00200240B6
:1004200004200B49C96801F0010109B101200EE067
:100430000749C96801F0040109B1022007E0044935
:10044000C96801F0100109B1032000E004207047E1
:10045000002002400348006940F080000149086123
:10046000704700000020024070B504460D46042687
:10047000F00200F025F80646042E11D10948006963
:1004800040F00100074908612580F00200F018F8EB
:1004900006460448006941F6FE71084001490861BA
:1004A000304670BD002002400248034948600348BE
:1004B000486070472301674500200240AB89EFCDBB
:1004C00000B502460423FFF7ABFF034603E0FFF746
:1004D000A7FF0346521E012B01D1002AF7D102B912
:1004E0000523184600BD2DE9F041024600250026EF
:1004F000002000230024002791F803C00CF00F0512
:1005000091F803C00CF0100CBCF1000F03D091F86F
:1005100002C04CEA050591F800C0BCF1000F31D0D3
:10052000146800202BE04FF0010C0CFA00F3B1F836
:1005300000C00CEA03069E4220D183004FF00F0C4E
:100540000CFA03F7BC4305FA03FC4CEA040491F8E7
:1005500003C0BCF1280F06D14FF0010C0CFA00FCCF
:10056000C2F814C00AE091F803C0BCF1480F05D1ED
:100570004FF0010C0CFA00FCC2F810C0401C082817
:10058000D1D31460B1F800C0BCF1FF0F34DD546862
:1005900000202EE000F1080C4FF0010808FA0CF3DF
:1005A000B1F800C00CEA03069E4221D183004FF04F
:1005B0000F0C0CFA03F7BC4305FA03FC4CEA0404E5
:1005C00091F803C0BCF1280F05D100F1080C08FA1E
:1005D0000CF8C2F8148091F803C0BCF1480F07D1A1
:1005E00000F1080C4FF0010808FA0CF8C2F810806E
:1005F000401C0828CED35460BDE8F081024600209C
:1006000093680B400BB1012000E00020704741616E
:100610007047016170470AB1016100E041617047B4
:1006200000BFFEE700BFFEE710B5114800F0A7FAD3
:100630001048007818B90E49087800F033F94FF4E3
:1006400080610D48FFF7DAFF18B932200B490880A6
:1006500004E00A480088401E0849088007480088CE
:1006600028B9012003490870002000F01BF910BDD3
:100670000400002008000020000801400E000020B7
:1006800010B500F0BDFE0D4800780D4908800CE063
:100690000C480078012808D100200A490870002180
:1006A0004FF0804000F08EFD00E0F1E70320FFF7FF
:1006B000E5FD0320FFF7E2FD10BD0000240100204E
:1006C000120000200C00002010B500243EE022485B
:1006D00000F055FA4FF480612048FFF78FFF70BBA0
:1006E0001D4800781E490855102C02D10220FFF742
:1006F000C5FD601C84B2B4F5887F01DD012000E0F7
:10070000002015494978FF2901D1012100E000218D
:100710000843A0B1A4F110001149C8731149104851
:100720000F3000F01BF900F043F90F490C480F306F
:1007300000F014F900F03CF900F0B6FC07E0FFE728
:100740000E2C03DB0449087800F0ACF8BFE7022068
:10075000FFF794FD10BD00000400002000080140D8
:1007600014000020240100202602002010B50E48AD
:1007700080880E49088000F043FE0CE00C480078A9
:10078000012808D100200A49087000214FF080405C
:1007900000F018FD00E0F1E70320FFF76FFD0320F4
:1007A000FFF76CFD10BD00002402002012000020A5
:1007B0000D00002010B500F019F800F061FE00F007
:1007C0002BF900F0F7F9FFF73FFD00F03BFC0020AC
:1007D000034908700349087032200349088010BD9E
:1007E000080000200A0000200E00002008B50121AA
:1007F000082000F069FB10208DF803004FF44660DC
:10080000ADF8000003208DF8020069460248FFF7AA
:100810006AFE00F0A7FA08BD000C014010B50446BE
:10082000002C0BDB20210C48FFF7F3FE40210A4887
:10083000FFF7EDFEA0B200F011FB0BE0202106480F
:10084000FFF7E5FE40210448FFF7E3FE614288B26E
:1008500000F004FB10BD0000000C014010B5044680
:10086000002C0DDB4FF480610D48FFF7D2FE4FF4F2
:1008700000610B48FFF7CBFEA0B200F0F9FA0DE0E3
:100880004FF480610648FFF7C2FE4FF40061044850
:10089000FFF7BFFE614288B200F0EAFA10BD000027
:1008A000000C014070B5064606F0E00506F00304B2
:1008B000012C01D1282408E0022C01D1462404E0B7
:1008C000032C01D1642400E00024202D06D160B265
:1008D000FFF7C4FF60B2FFF7A1FF3EE0C02D08D1D3
:1008E000604240B2FFF7BAFF604240B2FFF796FFA6
:1008F00033E0402D08D160B2FFF7B0FFA4F11E0134
:1009000048B2FFF78BFF28E0A02D09D1604240B22A
:10091000FFF7A4FFC4F11E0040B2FFF77FFF1CE009
:10092000602D09D1C4F11E0040B2FFF797FF60426D
:1009300040B2FFF773FF10E0802D08D1A4F11E0133
:1009400048B2FFF78BFF60B2FFF768FF05E00020B9
:10095000FFF784FF0020FFF761FF70BD30B58BB05B
:1009600005460C460121084600F08EFA009500204D
:10097000069040200490019400200790802005906C
:10098000002002904FF480700390002008904FF4F4
:1009900080400A908010099069460448FFF7ECFCFB
:1009A00000210248FFF7C6FC0BB030BD0800024032
:1009B00010B500210A48FFF7BDFC4FF480710848CC
:1009C000FFF7F8FC01210648FFF7B4FC00BF022046
:1009D000FFF7BCFC0028FAD00220FFF79DFC10BDF9
:1009E0000800024010B50446FFF75EFD2046FFF701
:1009F000F1FCFFF72FFD10BD70B505460C46FFF763
:100A000053FDA1B22846FFF72FFDFFF723FD70BD70
:100A1000014608887047704700B587B0012104205F
:100A200000F052FA0121082000F04EFA012188035B
:100A300000F03AFA10208DF81B004FF44070ADF82A
:100A4000180003208DF81A0006A93348FFF74BFD64
:100A500048208DF81B004FF48060ADF8180003208B
:100A60008DF81A0006A92C48FFF73DFD10208DF8DF
:100A70001B000002ADF8180003208DF81A0006A92B
:100A80002648FFF730FD18208DF81B004FF420405A
:100A9000ADF8180003208DF81A0006A91F48FFF7CB
:100AA00022FD48208DF81B004FF48040ADF818005F
:100AB00003208DF81A0006A91848FFF714FD4FF41B
:100AC0008270ADF806000020ADF80400ADF8080013
:100AD000ADF812001020ADF810000020ADF80A00AB
:100AE000ADF80C004FF40070ADF80E000720ADF823
:100AF000140001A90A4800F011FA0121084800F089
:100B0000F3F9012000F0B2F8002000F097F801207E
:100B100000F0A0F807B000BD00080140000C014043
:100B2000003800402DE9F04107460D4616460020EA
:100B300000F090F8384600F065F88046002405E0A3
:100B4000FF2000F05FF82855601CC4B2B442F7DB08
:100B5000012000F07FF84046BDE8F08170B5044602
:100B6000002000F077F8204600F04CF8FF2000F05D
:100B700049F80546012000F06DF8284670BD70B5B3
:100B800004460720FFF7EAFF05462946272000F024
:100B900095F805F0400050B1202221466120FFF772
:100BA000C1FFFF21E22000F089F8012070BD002084
:100BB000FCE7000010B5002000F040F820221049AA
:100BC0002A2000F05FF80121212000F077F80121B0
:100BD000222000F073F82821252000F06FF8202152
:100BE000312000F06BF80F21262000F067F80F216C
:100BF000202000F063F8012000F020F810BD000074
:100C0000C415000810B5044600BF02210A4800F0D0
:100C100077F90128F9D12146074800F07DF900BF96
:100C20000121054800F06CF90128F9D1024800F0D3
:100C300070F9C0B210BD00000038004010B5044685
:100C400022464FF480710248FFF7E5FC10BD00001A
:100C50000008014010B5044622464FF400710248D6
:100C6000FFF7D9FC10BD00000008014010B5044694
:100C700022464FF480510248FFF7CDFC10BD000022
:100C8000000C01402DE9F04107460C4615460020B6
:100C9000FFF7E0FF3846FFF7B5FF8046002605E086
:100CA00014F8010BFFF7AEFF701CC6B2AE42F7DBC3
:100CB0000120FFF7CFFF4046BDE8F08170B5054643
:100CC0000C460020FFF7C6FF2846FFF79BFF0646AD
:100CD0002046FFF797FF0120FFF7BCFF304670BDAD
:100CE00070B5002100230F22C47804B3154C24688A
:100CF00004F4E064C4F5E064210AC1F10403CA40CD
:100D0000447804FA03F184781440214309010E4C1D
:100D10000678A155047804F01F050124AC4005783D
:100D20006D11AD0005F1E025C5F8004109E004783A
:100D300004F01F050124AC40044D0678761145F8F7
:100D4000264070BD0CED00E000E400E080E100E032
:100D500002490143024A1160704700000000FA0591
:100D60000CED00E000B589B00121022000F09CF8F4
:100D70000121042000F098F80121082000F0A4F8D7
:100D800018208DF823008220ADF8200003208DF874
:100D9000220008A92E48FFF7A6FB2E4800F038FADB
:100DA0002D4800F035FA0020ADF81A00ADF8160015
:100DB0006320ADF818002320ADF8140000208DF852
:100DC0001C0005A9234800F0C9FA0020ADF81A005C
:100DD000ADF816006320ADF818002320ADF814001C
:100DE00000208DF81C0005A91B4800F0B7FA01A8E7
:100DF00000F0A4FA6020ADF804000020ADF80C006B
:100E00000120ADF806000020ADF80A0001A9114844
:100E100000F056FA01A800F091FA6020ADF8040045
:100E20000020ADF80C000120ADF806000020ADF860
:100E30000A0001A9084800F0F1F90121054800F075
:100E4000C1F90121044800F0BDF909B000BD00005E
:100E5000000C0140000400400008004010B50446AA
:100E60002146024800F074FA10BD0000000800405E
:100E700010B504462146024800F06CFA10BD00008F
:100E8000000400407047000029B1064A526902433D
:100E9000044B5A6104E0034A52698243014B5A6190
:100EA000704700000010024029B1064AD26902438F
:100EB000044BDA6104E0034AD2698243014BDA61F0
:100EC000704700000010024029B1064A92690243AF
:100ED000044B9A6104E0034A92698243014B9A6190
:100EE000704700000010024021B1028842F0400229
:100EF000028004E002884FF6BF731A4002807047F8
:100F00000246002013890B400BB1012000E00020B5
:100F100070470146888970478181704710B500226B
:100F2000028802F441520B884C8823438C88234367
:100F3000CC8823430C8923434C8923438C89234346
:100F4000CC8923431A430280838B4FF2FF742340E2
:100F500083830B8A038210BD704710B500F002F83E
:100F600010BD00000CB500200190009033480068CF
:100F700040F480303149086000BF3048006800F418
:100F8000003000900198401C0190009818B9019819
:100F9000B0F5A06FF1D12948006800F4003010B11D
:100FA0000120009001E0002000900098012843D12A
:100FB0002348006840F01000214908600846006896
:100FC00020F0030008600846006840F00200086056
:100FD0001A48406819494860084640684860084611
:100FE000406840F4806048600846406820F47C1007
:100FF00048600846406840F4E810486008460068C9
:1010000040F08070086000BF0C48006800F000707D
:101010000028F9D00948406820F0030007494860DB
:101020000846406840F00200486000BF034840683E
:1010300000F00C000828F9D10CBD0000001002409F
:101040000020024010B51648FFF7E2FC4AF2A55115
:10105000884214D01248FFF7C5FC4AF2A551104847
:10106000FFF7CAFC012407E00D4901EB4400002111
:10107000FFF7C2FC601C84B2B4F5007FF4DB0024EF
:1010800009E0074901EB4400FFF7C2FC054921F8DC
:101090001400601C84B2B4F5007FF2DB10BD0000C8
:1010A00000FC00082402002010B50948FFF79AFC54
:1010B000002409E0074A32F81410054A02EB440004
:1010C000FFF79AFC601C84B2B4F5007FF2DB10BD20
:1010D00000FC0008240200207047000010B51348EF
:1010E000006840F001001149086008464068104956
:1010F00008400E494860084600680E4908400B4900
:1011000008600846006820F48020086008464068AF
:1011100020F4FE0048604FF41F008860FFF71DFFB9
:101120004FF000600449086010BD0000001002404C
:101130000000FFF8FFFFF6FE08ED00E010B501210A
:10114000880700F04BF801282DD11748007800F0EF
:101150001C00142823D1154815490988405C00F06B
:10116000EF00C043C4B2114811490988405C00F047
:1011700004002044C4B22046FFF794FB0C480088CA
:10118000401E0B4908800846008840B90020FFF740
:1011900089FB0120074908700220FFF76FF8012141
:1011A000880700F00CF810BD040000202401002086
:1011B000120000200C000020CA4302827047CA437C
:1011C0000282704721B1028842F00102028004E0ED
:1011D00002884FF6FE731A400280704730B502460F
:1011E000002000230024158A05EA0103958905EAF9
:1011F000010413B10CB1012000E0002030BD1AB190
:1012000083890B43838102E083898B438381704709
:1012100001894FF6F87211400181704770B50024C2
:1012200000220023058C4FF6EF7635400584028CB2
:101230008388048B48F6FF752C404FF6FF452C4001
:101240000D884FF6FF7606EA05252C434FF6DF752D
:101250002A400D8906EA05152A434D8806EA051538
:101260002A43154DA84202D0144DA8421DD14FF675
:101270007F752A404D894FF6FF7606EA05152A4309
:101280004FF6BF752A408D8806EA05152A434FF6AA
:10129000FF352B404FF2FF752B408D8906EA8505FF
:1012A0002B43CD8906EA85052B4383800483CD88B3
:1012B0000587028470BD0000002C0140003401400D
:1012C00070B5002200230024058C4EF6FF763540D1
:1012D0000584038C8488828B48F6FF752A404FF67C
:1012E000FF452A400D884FF6FF7606EA05252A437A
:1012F0004DF6FF752B400D8906EA05352B434D88C9
:1013000006EA05352B430B4DA84202D00A4DA842F0
:1013100008D14BF6FF752C408D894FF6FF7606EA13
:1013200085152C4384808283CD88A0F840500384A7
:1013300070BD0000002C01400034014000210180FC
:1013400041808180C180018141818181C18170475B
:1013500001877047A0F84010704700000022028803
:101360001D4B98420ED01D4B98420BD0B0F1804FD0
:1013700008D01B4B984205D01A4B984202D01A4B0A
:10138000984204D14FF68F731A404B881A43174B7B
:10139000984207D0164B984204D04FF6FF431A40AC
:1013A000CB881A4302808B8883850B8803850A4B80
:1013B00098420BD0094B984208D00E4B984205D06A
:1013C0000D4B984202D00D4B984201D10B7A038607
:1013D0000123838270470000002C0140003401404B
:1013E0000004004000080040000C004000100040D5
:1013F000001400400040014000440140004801400A
:101400001FB501210846FFF74FFD4FF08040FFF761
:10141000FFFE0020ADF80A00ADF8060040F2CF70E4
:10142000ADF8080041F61F40ADF8040000208DF82B
:101430000C0001A94FF08040FFF790FF01218807C1
:10144000FFF7BAFE012211469007FFF7D8FE4FF4CE
:10145000A060FFF77DFC1C208DF8000001208DF8B6
:10146000030000208DF801008DF802006846FFF7A8
:1014700037FC01218807FFF7A5FE1FBD00BFFEE76F
:1014800000B587B001210420FFF71EFD01210803EC
:10149000FFF71AFD10208DF81B00ADF8180003208F
:1014A0008DF81A0006A92248FFF71DF818208DF8BC
:1014B0001B00A020ADF8180003208DF81A0006A923
:1014C0001B48FFF710F848208DF81B004020ADF8AE
:1014D000180003208DF81A0006A91548FFF703F835
:1014E0004FF48270ADF806000020ADF80400ADF8AE
:1014F0000800ADF812003020ADF810000020ADF863
:101500000A00ADF80C004FF40070ADF80E00072093
:10151000ADF8140001A90748FFF700FD01210548B7
:10152000FFF7E2FC012000F007F807B000BD000063
:10153000000801400030014010B504462246102149
:101540000148FFF768F810BD00080140FFF732F9C5
:1015500024E01348FFF713FB1148007800F01C004B
:1015600010B9FFF761F819E00D48007800F01C0091
:10157000142802D1FFF784F810E00948007800F041
:101580001C00182802D1FFF79FF807E004480078F4
:1015900000F01C001C2801D1FFF7E8F8D9E7000093
:1015A000040000203443101001000000000000007F
:1015B000000000000000000000000000000000002B
:1015C0000000000034431010010000000000000083
:1015D000000000000000000000000000000000000B
:1015E00000000000041600080000002014000000A5
:1015F000280100081816000814000020740C0000D0
:10160000440100080000000000000000000000008D
:081610000000000000000000D2
:04000005080000ED02
:00000001FF
