:020000040800F2
:10000000800A002089010008950500084B040008BB
:100010004F04000843020008710B000800000000B4
:1000200000000000000000000000000005060008BD
:10003000E502000800000000C1050008C90700082B
:10004000A3010008A3010008A3010008A301000800
:10005000A3010008A3010008A3010008A3010008F0
:10006000A3010008A3010008A3010008A3010008E0
:10007000A3010008A3010008A3010008A3010008D0
:10008000A3010008A3010008A3010008A3010008C0
:10009000A3010008A3010008A3010008A3010008B0
:1000A000A3010008A3010008A3010008A3010008A0
:1000B0002D080008A3010008A3010008A3010008FF
:1000C000A3010008A3010008A3010008A301000880
:1000D000A3010008A3010008A3010008A301000870
:1000E000A3010008A3010008A301000800F002F822
:1000F00000F03AF80AA090E8000C82448344AAF188
:100100000107DA4501D100F02FF8AFF2090EBAE885
:100110000F0013F0010F18BFFB1A43F0010318473B
:10012000740F0000940F0000103A24BF78C878C103
:10013000FAD8520724BF30C830C144BF04680C60ED
:10014000704700000023002400250026103A28BF35
:1001500078C1FBD8520728BF30C148BF0B60704739
:100160001FB51FBD10B510BD00F031F81146FFF7E7
:10017000F7FF00F0FFFC00F04FF803B4FFF7F2FFC9
:1001800003BC00F057F800000948804709480047C1
:10019000FEE7FEE7FEE7FEE7FEE7FEE7FEE7FEE737
:1001A000FEE7FEE704480549054A064B7047000094
:1001B000CD070008ED00000880040020800A002020
:1001C0008006002080060020704770477047754603
:1001D00000F02CF8AE4605006946534620F00700B3
:1001E000854618B020B5FFF7DDFFBDE820404FF091
:1001F00000064FF000074FF000084FF0000B21F011
:100200000701AC46ACE8C009ACE8C009ACE8C009DD
:10021000ACE8C0098D46704710B50446AFF30080C6
:100220002046BDE81040FFF7A8BF00000048704717
:100230001C04002001491820ABBEFEE72600020086
:10024000704700BFFEE7000070B50446012C1BD1CB
:100250000121234800F0F5F84FF4617000F043F8F5
:1002600001211F4800F0EFF84FF4167000F03BF842
:1002700001211B4800F0E5F84FF4617000F033F8FD
:100280000121174800F0DFF8022C0FD1012114489A
:1002900000F0D7F84FF4617000F025F80121104804
:1002A00000F0D1F84FF4167000F01DF8032C16D1B1
:1002B000002511E001210A4800F0C3F84FF47A70DC
:1002C00000F011F80121064800F0BDF84FF47A70F3
:1002D00000F009F8681CC5B2142DEBDB00BF70BD3F
:1002E00000080140704700B5034603E04FF47A7000
:1002F00000F005F8181EA3F10103F7D100BD00EBD3
:10030000C001C9004FF0E022516100219161052137
:10031000116100BF4FF0E021096901F4803100292B
:10032000F8D004214FF0E022116170472DE9F0412F
:10033000024600250026002000230024002791F813
:1003400003C00CF00F0591F803C00CF0100CBCF1C9
:10035000000F03D091F802C04CEA050591F800C0E7
:10036000BCF1000F31D0146800202BE04FF0010CDD
:100370000CFA00F3B1F800C00CEA03069E4220D14B
:1003800083004FF00F0C0CFA03F7BC4305FA03FC93
:100390004CEA040491F803C0BCF1280F06D14FF0D9
:1003A000010C0CFA00FCC2F814C00AE091F803C07A
:1003B000BCF1480F05D14FF0010C0CFA00FCC2F85B
:1003C00010C0401C0828D1D31460B1F800C0BCF1A3
:1003D000FF0F34DD546800202EE000F1080C4FF0D0
:1003E000010808FA0CF3B1F800C00CEA03069E42BB
:1003F00021D183004FF00F0C0CFA03F7BC4305FA30
:1004000003FC4CEA040491F803C0BCF1280F05D1A9
:1004100000F1080C08FA0CF8C2F8148091F803C037
:10042000BCF1480F07D100F1080C4FF0010808FAA1
:100430000CF8C2F81080401C0828CED35460BDE8E8
:10044000F081416170470161704700BFFEE700BF66
:10045000FEE7000010B50446002C0BDB20210C4801
:10046000FFF7F1FF40210A48FFF7EBFFA0B200F0D1
:1004700093F80BE020210648FFF7E3FF40210448F2
:10048000FFF7E1FF614288B200F086F810BD00007E
:10049000000C014010B50446002C0DDB4FF48061C8
:1004A0000D48FFF7D0FF4FF400610B48FFF7C9FF7D
:1004B000A0B200F07BF80DE04FF480610648FFF732
:1004C000C0FF4FF400610448FFF7BDFF614288B2EE
:1004D00000F06CF810BD0000000C014070B506463D
:1004E00006F0E00506F00304012C01D1282408E001
:1004F000022C01D1462404E0032C01D1642400E045
:100500000024202D06D160B2FFF7C4FF60B2FFF7D0
:10051000A1FF3EE0C02D08D1604240B2FFF7BAFF14
:10052000604240B2FFF796FF33E0402D08D160B241
:10053000FFF7B0FFA4F11E0148B2FFF78BFF28E0E0
:10054000A02D09D1604240B2FFF7A4FFC4F11E0004
:1005500040B2FFF77FFF1CE0602D09D1C4F11E00FF
:1005600040B2FFF797FF604240B2FFF773FF10E021
:10057000802D08D1A4F11E0148B2FFF78BFF60B2B5
:10058000FFF768FF05E00020FFF784FF0020FFF77A
:1005900061FF70BD7047000010B504462146024857
:1005A00000F08CFA10BD00000008004010B50446B1
:1005B0002146024800F086FA10BD00000004004009
:1005C0007047000029B1064AD2690243044BDA6140
:1005D00004E0034AD2698243014BDA6170470000AC
:1005E0000010024029B1064A92690243044B9A6105
:1005F00004E0034A92698243014B9A61704700000C
:10060000001002407047000000B589B001210220AF
:10061000FFF7D8FF01210820FFF7E4FF18208DF82D
:1006200023000120ADF8200003208DF8220008A946
:100630001848FFF77BFE184800F0E0F90020ADF8FD
:100640001A00ADF8160044F61F60ADF818004720F8
:10065000ADF8140000208DF81C0005A90E4800F02C
:1006600035FA01A800F020FA6020ADF8040000205F
:10067000ADF80C000120ADF806000020ADF80A002E
:1006800001A9054800F0C0F90121034800F099F9DB
:1006900009B000BD000C0140000400402DE9F0410C
:1006A00004460B49204600F0D1FA8046094900F083
:1006B000AFFB0746084900F067FA064600F088FBE2
:1006C00085B22946054800F0FBF9BDE8F08100003D
:1006D000000034430000FA440000FA4300040040E4
:1006E00010B500F001F810BD0CB50020019000908D
:1006F0003348006840F480303149086000BF30481A
:10070000006800F4003000900198401C01900098AF
:1007100018B90198B0F5A06FF1D12948006800F42C
:10072000003010B10120009001E0002000900098FE
:10073000012843D12348006840F010002149086097
:100740000846006820F0030008600846006840F092
:10075000020008601A484068194948600846406825
:1007600048600846406840F4806048600846406839
:1007700020F47C1048600846406840F4E810486067
:100780000846006840F08070086000BF0C480068B0
:1007900000F000700028F9D00948406820F00300FC
:1007A000074948600846406840F00200486000BFC2
:1007B0000348406800F00C000828F9D10CBD000087
:1007C00000100240002002407047000010B513489E
:1007D000006840F00100114908600846406810496F
:1007E00008400E494860084600680E4908400B4919
:1007F00008600846006820F48020086008464068C9
:1008000020F4FE0048604FF41F008860FFF768FF87
:100810004FF000600449086010BD00000010024065
:100820000000FFF8FFFFF6FE08ED00E010B5012123
:10083000880700F0D2F801287ED15748007800F0F0
:100840001C0018285CD155480088401C534908807A
:10085000088800EBD0714910A0EB410101291FD19C
:100860004F485049098830F81100E02101EA202062
:10087000C0434D4908800846007800F0E000088039
:1008800047484849098830F81100C0F3012046491B
:1008900009880844444908800878FFF71FFE22E0D1
:1008A0003F484049098810F8110000F0E000C043BB
:1008B0003D4908800846007800F0E000088038488C
:1008C0003849098810F8110000F0030036490988FA
:1008D0000844354908800878FFF700FE3148008851
:1008E000401E304908802F480088012808D1002088
:1008F000FFF7F4FD01202D4908700220FFF7A4FC4A
:100900002548007800F01C0014283AD123480088BC
:10091000401C22490880088800EBD0714910A0EBE8
:10092000410101290DD11E4921480088401C11F8C0
:1009300010001D49088000E02CE00878FFF7CEFD8C
:1009400010E017491A480088401C31F810000012C6
:10095000154908800878FFF7C1FD15480088401C3C
:10096000134908800E4880780C490988884208D1CC
:100970000020FFF7B3FD01200E4908700220FFF7A9
:1009800063FC0D480088401C0B4908800121880742
:1009900000F014F810BD0000040000201A00002030
:1009A0001C00002014000020180000200B00002074
:1009B000120000200C00002016000020CA43028212
:1009C000704721B1028842F00102028004E00288EF
:1009D0004FF6FE731A400280704730B50246002081
:1009E00000230024158A05EA0103958905EA01041C
:1009F00013B10CB1012000E0002030BD01894FF699
:100A0000F87211400181704770B500240022002364
:100A1000058C4FF6FF6635400584028C8388848BF5
:100A20004FF68F752C404FF6FC752C400D882C43EB
:100A30004FF6FF552A400D894FF6FF7606EA052549
:100A40002A434D8806EA05252A43154DA84202D0BF
:100A5000144DA8421DD14FF2FF752A404D894FF623
:100A6000FF7606EA05252A434FF6FF352A408D8892
:100A700006EA05252A434EF6FF752B404DF6FF7515
:100A80002B408D8906EA05152B43CD8906EA05150D
:100A90002B4383808483CD888587028470BD0000CA
:100AA000002C014000340140002101804180818000
:100AB000C180018141818181C18170470187704777
:100AC00081877047A0F8401070470000002202881C
:100AD0001D4B98420ED01D4B98420BD0B0F1804F69
:100AE00008D01B4B984205D01A4B984202D01A4BA3
:100AF000984204D14FF68F731A404B881A43174B14
:100B0000984207D0164B984204D04FF6FF431A4044
:100B1000CB881A4302808B8883850B8803850A4B18
:100B200098420BD0094B984208D00E4B984205D002
:100B30000D4B984202D00D4B984201D10B7A03869F
:100B40000123838270470000002C014000340140E3
:100B50000004004000080040000C0040001000406D
:100B600000140040004001400044014000480140A2
:100B700000BFFEE7FFF748FD02E00248FFF78EFDE9
:100B8000FBE700000000B44290EA010F48BF81F08B
:100B9000004100F11082421A3CBF801A89184FEAC6
:100BA000D0524FF07F4C1CEA410FA2EBD15318BF3B
:100BB0009CEA026F00F03B804FF0004C4CEA0020B2
:100BC0004CEA012121FA03FC10EB0C0C1ED202F1BD
:100BD000FF325FEA1C2040EBC25038BF70471CF068
:100BE0007F0F4FEA400C18BFBCF17F4F38BF7047F2
:100BF000C3F12003994008BF20F00100BCF17F4FF2
:100C000038BF7047A0F1C04000F0C9B94FEA3C00BE
:100C1000000A40EBC25028BF1CF0FF0F4FEA400C07
:100C2000E6D018BFBCF17F4F38BF7047EAE79CEAB7
:100C3000026F05D010EA5C0F08BF00F0004070475B
:100C400010B500F066F900BF64FBBE3E4FF47F0CA8
:100C50001CEAD0121EBF1CEAD11392EA0C0F93EAD1
:100C60000C0F00F0858090EA010F48BF42F48072BB
:100C700040F4000C41F400002CF07F4120F07F4054
:100C800000B58142A2EB03020FF2081CACEB504E00
:100C9000C0F100009EF800E04FEA4E0E00FB0EFC93
:100CA00038BF49004FEA2C1C02F5FA020CFB0EF388
:100CB0004FEACE1E4FEA112C4FEAC1210EEB635EC4
:100CC00042EB22420EFB0CFC4FEA1C5300FB0311CB
:100CD0004FEA112C4FEA01310EFB0CFC4FEADC4CC1
:100CE00000FB0C11C14228BF09184CEB03335DF81F
:100CF00004EB10EB410143EBC250B2F57C0F38BF5F
:100D0000704729D512F0F00F1CBF00F1C04000F071
:100D100000407047008182838485868788898B8C18
:100D20008D8E8F919293959697999A9C9D9FA0A254
:100D3000A3A5A7A8AAACAEB0B2B3B5B7B9BCBEC0A4
:100D4000C2C5C7C9CCCED1D4D7D9DCDFE2E6E9EC45
:100D5000F0F3F7FAFE0000004FEA400C0CF1807C43
:100D6000BCF17E4F28BF7047B0F1C04000F017B90A
:100D700090EA010F0CEAD11348BF42F48072624539
:100D800038BF634507D213F47F0F16D080EA010005
:100D900000F00040704710B500F0BBF8097EFC3E43
:100DA00000F005B880EA010000F00040704780EADA
:100DB000010000F0004000F0F2B812F47F0F04BF11
:100DC0000248704780EA010000F0E9B80000C07FE7
:100DD000C10DD1F19E0206DB4FEA002343F0004330
:100DE00023FA02F07047004207D54FEA4001B1F103
:100DF000FE4F02D24FF00000704710B500F089F8A6
:100E000049922480002070476FEA2000704700005C
:100E10004FF47F0C1CEAD0121EBF1CEAD11392EAD9
:100E20000C0F93EA0C0F00F0478090EA010F48BFC7
:100E300042F480724FF0004C4CEA00204CEA012151
:100E400002EB0302A0FB0113A2F50002002918BF68
:100E500043F001035B0028BF4FEA330342EB224219
:100E60005FEA132C4CEBC2502EBFBCEB436FB2F5C4
:100E70007C0F70474FEA036CBCF1004F08BF20F0B5
:100E80000100B2F57C0F38BF70470BD582F0FF022E
:100E900012F5803FC8BF704700F1C040D8BF00F0D6
:100EA0000040704700F5000C5FEA4C0C48BF7047EB
:100EB000B0F1C04000F073B890EA010F0CEAD11312
:100EC00048BF42F48072624538BF634504D280EA6D
:100ED000010000F00040704710B500F01AF800BFA4
:100EE0008900013E00F007B800F009B85FEA410C44
:100EF0005FEA1C6C08D080EA010000F050B85FEA9D
:100F0000400C5FEA1C6CF6D14FF00040A0F5800069
:100F100070470EF1020E2EF0030E5EF8044B2442D1
:100F200004D44FEA4102B2F17F4F11D84FEA400397
:100F3000B3F17F4F0CD80ED14FEAD07CB2F17F4F86
:100F40000CEB4C0C0CF1020C08BF4CEBD17C04E018
:100F50004FF0080C01E04FEAD17C0CEB4C0324FA73
:100F600003F404F00704B4F1040C06D20EEB840C75
:100F7000BDE810404CF0010C6047DFE80CF00708BA
:100F800002024FF00040A0F5800010BD084642006C
:100F900018BFD2F1807288BF00F0004010BDFF2161
:100FA00041EAD050C005704790EA010F48BF81F078
:100FB00000413FF5F0AD421A04D882F00042A0EBA8
:100FC000020011444FEAD0524FF07F4C1CEA410F0F
:100FD000A2EBD15318BF9CEA026F4AD04FF0004CED
:100FE0004CEA00204CEA012121FA03FCB0EB0C0C86
:100FF0000FD412F0FE0F36D05FEA4C001DD5001260
:1010000040EBC25038BF70471CF03F0F18BF70470D
:101010000BE0A2F101025FEA1C2040EBC25038BF96
:1010200070471CF07F0F18BF7047C3F12003994031
:1010300014BF401E20F00100704780084FEA1223C1
:1010400008BF7047B0FA80FCA2EB0C02CCF1280C70
:1010500060FA0CF093EA122F04BF00EBC250704705
:101060004FEAC3707047130A5FEADC1008BF70478D
:10107000F6E79CEA026F04D010EA5C0F08BF00207C
:10108000704710B5FFF745FF40DFF63E81F00040A6
:1010900070470000B4100008000000201C00000091
:1010A00028010008D01000081C000020640A00007D
:1010B00044010008000000000000000000000000E3
:1010C0000000000000000000000000000000000020
:04000005080000ED02
:00000001FF
